:020000040800F2
:1000000088070020910100086D1A000815190008E2
:10001000691A0008ED0500088D1D000800000000A9
:10002000000000000000000000000000811D00082A
:10003000F105000800000000711A0008851D000885
:10004000AB010008AB010008AB010008AB010008E0
:10005000AB010008AB010008AB010008AB010008D0
:10006000AB010008AB010008AB010008AB010008C0
:10007000AB010008AB010008AB010008AB010008B0
:10008000AB010008AB010008AB010008AB010008A0
:10009000AB010008AB010008AB010008AB01000890
:1000A000AB010008AB010008AB010008AB01000880
:1000B000AB010008AB010008AB010008AB01000870
:1000C000AB010008AB010008AB010008AB01000860
:1000D000AB010008AB010008AB010008AB01000850
:1000E000AB010008AB010008AB01000800F002F80A
:1000F00000F03FF80AA090E8000C82448344AAF183
:100100000107DA4501D100F034F8AFF2090EBAE880
:100110000F0013F0010F18BFFB1A43F0010318473B
:10012000E8390000083A0000103A24BF78C878C1C6
:10013000FAD8520724BF30C830C144BF04680C60ED
:10014000704700000023002400250026103A28BF35
:1001500078C1FBD8520728BF30C148BF0B60704739
:10016000642900F07180002070471FB51FBD10B5D5
:1001700010BD00F000FA1146FFF7F7FF02F0F6F9A4
:1001800000F01EFA03B4FFF7F2FF03BC00F026FAFA
:100190000948804709480047FEE7FEE7FEE7FEE71B
:1001A000FEE7FEE7FEE7FEE7FEE7FEE70448054957
:1001B000054A064B70470000891D0008ED00000845
:1001C0008801002088070020880300208803002081
:1001D0000FB41CB5074B06AA7B44694600900598EE
:1001E00000F0B1F90020694600F0C0F91CBC5DF8D0
:1001F00014FB00009103000070B504468569006897
:10020000C10601D5302600E02026C00707D070BD0A
:10021000D4E9012130469047206A401C20626D1EBF
:10022000F6D570BD70B5044685690078C00707D162
:1002300070BDD4E9012120209047206A401C206233
:100240006D1EF6D570BD00002DE9F0410646002474
:1002500010687529314616A510D0AFF3008000282C
:1002600002DA404213A507E031688A0701D512A5DA
:1002700002E0490704D511A5012401E0AFF3008095
:1002800000210A2206F1240709E0B0FBF2FCB0FBD2
:10029000F2F302FB1C00303078541846491C002849
:1002A000F3D123462A463046BDE8F04100F0EDB8D0
:1002B000000000002D0000002B00000020000000C6
:1002C0002DE9F05F894604464FF0000ADFF824B1BB
:1002D000FB44C0F820A02046E168884700287DD074
:1002E000252806D0D4E901219047206A401C2062CD
:1002F000F1E700255F462046E1688847202806464A
:1003000007DB312E05D2B81910F8200C08B10543CF
:10031000F1E7A80701D525F00405C4F81CA00027C3
:10032000C4F818A02A2E09D0304603F0C8FB38B311
:1003300004EB8708303EC8F8186019E059F8041B30
:10034000204604EB87029161E1688847012F064649
:1003500018D1E069002820DA25F020051DE0D8F842
:10036000180000EB800006EB40003038C8F8180099
:100370002046E1688847064603F0A1FB0028EED13D
:10038000012F0AD02E2E08D12046E16888477F1C15
:100390000646022F45F02005C4DBA069002803DAD9
:1003A000404245F00105A061E80701D025F01005A5
:1003B000A6B1A6F14100192802D8203645F40065FF
:1003C0004A463146204625604D46FFF7C9FE60B1DA
:1003D000012807D0ED1D25F0070000E007E000F13F
:1003E000080978E705F1040975E730467AE7206ADD
:1003F000BDE8F09FF837000010B5431C02E010F88C
:10040000011B71B18107FAD14FF0013202C88C1A79
:100410008C4314EAC211F9D0C01A0A0603D0C01ED8
:1004200010BDC01A10BD0A0401D0801E10BD090203
:10043000FCD0401E10BD4FF0000200B5134694469C
:100440009646203922BFA0E80C50A0E80C50B1F12C
:100450002001BFF4F7AF090728BFA0E80C5048BF40
:100460000CC05DF804EB890028BF40F8042B08BFDE
:10047000704748BF20F8022B11F0804F18BF00F8DA
:10048000012B70477047704770472DE9F0470D46C4
:1004900099469246044600F124080168880604D56E
:1004A000E06921F01001216000E00120A84201DD97
:1004B000471B00E00027A1697A1902EB0900081A1E
:1004C000A0612078C00602D42046FFF795FE0026E2
:1004D00008E0D4E901211AF806009047206A401C80
:1004E000761C20624E45F4DB2078C0060AD52046F3
:1004F000FFF782FE06E0D4E9012130209047206A10
:10050000401C2062381EA7F10107F4DC07E0D4E9A3
:10051000012118F805009047206A401C2062281E1F
:10052000A5F10105F3DC2046FFF77CFE20780006EC
:1005300002D50220BDE8F0870120FBE701694A1CD3
:1005400002610878704700B58FB0CDE90131002114
:10055000059105497944CDE9031011466846FFF736
:10056000AFFE0FB000BD0000E5FFFFFF0A6802F814
:10057000010B0A607047754600F02CF8AE46050086
:100580006946534620F00700854618B020B5FFF7AE
:100590000DFEBDE820404FF000064FF000074FF081
:1005A00000084FF0000BAC46ACE8C009ACE8C0094D
:1005B000ACE8C009ACE8C00921F007018D467047DE
:1005C00010B50446AFF300802046BDE81040FFF7A9
:1005D000D9BD0000004870473000002001491820B4
:1005E000ABBEFEE72600020070470000FEE70000F9
:1005F00070470000B0B5044600F032F9054640F2FD
:100600001800C2F200000078611C18BF044400BF4B
:1006100000F026F9401BA042FAD3B0BD2DE9F04FFF
:1006200082B00E68002E00F0038141F20042C4F255
:100630000102042340F2004E904208BF03234FF60C
:10064000FF7CC4F2010E009300240123C1F2100CC0
:100650004FF0000A4FF0000949E000BF012704F005
:100660000C030F229A402BEA020207FA03F34FEA27
:100670009A051A4346F82520D1F804B040F20C45FB
:100680005FEACB22DEF8082054BF22EA080242EAE1
:100690000802C4F20105CEF808202A685FEA8B231D
:1006A00054BF22EA080242EA08022A605FEA8B335A
:1006B000DEF8042054BF22EA080242EA08025FEA98
:1006C000CB33CEF80420DEF800204FF0010354BFF6
:1006D00022EA080242EA0802CEF800200E680AF177
:1006E000010A36FA0AF204F1040400F0A18003FAC8
:1006F0000AF816EA080FF1D04E68664512DC122E91
:1007000056D8DFE806F0350B454955555555555532
:10071000555555555555554D510000BFD1F80C90C4
:1007200046E000BF4FF6FF72C1F2210296420FDC95
:100730000022C1F2110296421AD00022C1F2120226
:10074000964215D00022C1F22102964210D02FE02D
:100750000022C1F2220296420AD00022C1F23102E6
:10076000964205D00022C1F23202964220D100BF4B
:100770008A684AB1012A14BFC0F81480C0F81080FA
:100780004FF0080914E000BF4FF0040910E000BF6B
:10079000CA6802F108090BE04FF0000908E000BF49
:1007A000CA6802F1040903E0CA6802F10C0900BF3B
:1007B00022460646BAF1080F24BF203A04363768AD
:1007C0000F25954027EA050509FA02F22A4332600F
:1007D000CA79D2067FF582AF41F21803C4F2020350
:1007E0001A68AEF57E7642F001021A601A6802F0CD
:1007F00001020192019A2AF0030256F802B040F673
:100800000002C4F20102904210D040F60042C4F24D
:10081000010290423FF422AF41F20002C4F2010211
:10082000009F904208BF022719E700BF002716E784
:1008300002B0BDE8F08F00008068084018BF0120BA
:1008400070470000C26802EA0103914341EA034194
:1008500001617047002A08BF090401617047000068
:1008600040F28010C2F200000068704740F21800A9
:1008700040F28011C2F20000C2F2000100780A6862
:10088000104408607047000080B542F20000C4F2D6
:100890000200016841F010010160032000F072F8CD
:1008A0000F2000F005F800F027F8002080BD0000C0
:1008B00070B540F21806C2F2000640F2200132780C
:1008C000C2F200014FF47A730968B3FBF2F20446F6
:1008D000B1FBF2F1084601F007F80F2C4FF00105CB
:1008E00008D838B94FF0FF3021460022002500F02B
:1008F0001DF87460284670BD82B041F21800C4F241
:100900000200016841F001010160016801F001018C
:1009100001910199416841F080514160406800F0C7
:1009200080500090009802B07047000010B54EF65D
:100930000C5CCEF2000CDCF80030C3F3022E8EF01B
:100940000704042C28BF0424BEF103034FF0FF3E2C
:100950000EFA04F438BF0023A14399400EFA03F3C2
:100960009A43114300F00F0200F160430901043A79
:1009700003F564436244002848BF02F10C03197078
:1009800010BD00004EF60C51CEF200010A684FF681
:10099000FF031A4060F30A2242F0806040F0FD70CD
:1009A000086070472020C4F20E20012101607047CA
:1009B00080B5012818D0022836D0102832D141F253
:1009C0000401C4F202010A6851F8040CC00129D5DF
:1009D000C2F383402DA3185CD2033DD440F600122D
:1009E000C0F23D02504343E041F20400C4F2020071
:1009F000C16940F202320A40B2F5817F04BF4FF470
:100A0000004080BD01F44071B1F5407F1CD0B1F5CC
:100A1000007F07D1006A49F64041800701EAE07093
:100A200080BD00BF002080BD00F0A0F941F20401AC
:100A3000C4F2020109680222C1F3813102EB4101D3
:100A4000B0FBF1F080BD00BF50F8040C4FF2244120
:100A5000800301EAE07080BD0A6810A3C2F340423F
:100A60009A5C41F20023C0F27A03B3FBF2F25043E6
:100A70000968490248BF80BD4AF6AB214000CAF66A
:100A8000AA21A0FB0101480880BD00BF02030405A4
:100A9000060708090A0B0C0D0E0F101001020000CA
:100AA0002DE9F04182B00446007841F21C06C007EF
:100AB000C4F202064AD0306810F0805808D130687D
:100AC00040F080503060306800F080500190019814
:100AD00047F20007C4F200073868C00512D438682E
:100AE00040F480703860FFF7BBFE05463868C005EB
:100AF00008D4FFF7B5FE401B6428F7D9032002B0E5
:100B0000BDE8F081706810F4407012D0616801F4A3
:100B1000407188420DD0706840F24042C4F24222D7
:100B2000012320F4407113600023C007136071603B
:100B30002AD17068616820F440700843B8F1000F52
:100B4000706003D1306820F08050306020688107E9
:100B500007D556F8181CA26821F44041114346F805
:100B6000181CC00604D4002002B0BDE8F08100BF0C
:100B700056F8180CE16820F48000084346F8180C79
:100B8000002002B0BDE8F081FFF76AFE054641F2A1
:100B9000883700BF70688007CBD4FFF761FE401B29
:100BA000B8424FF00300F5D9EBE700002DE9F04320
:100BB00081B0002800F0858042F20008C4F20208EB
:100BC0000446D8F800000D4600F0070088420CD219
:100BD000D8F8000020F007002843C8F80000D8F833
:100BE000000000F00700A8426BD1206841F2040920
:100BF0008107C4F2020917D5410705D5D9F80010BD
:100C000041F4E061C9F80010010705D5D9F80010DA
:100C100041F46051C9F80010D9F80010A26821F021
:100C2000F0011143C9F80010C00741D1D8F8000005
:100C300000F00700A8420CD9D8F8000020F0070007
:100C40002843C8F80000D8F8000000F00700A842C8
:100C500037D12068410707D5D9F80010E26821F4A0
:100C6000E0611143C9F80010000708D5D9F8000069
:100C7000216920F4605040EAC100C9F80000D9F8A9
:100C8000002002F00C00082841F20020C0F27A0097
:100C900050D143F6F723C2F38341C0F60003595CF9
:100CA000D2033BD440F60010C0F23D00484341E07F
:100CB000606802280AD001282AD159F8041C890347
:100CC00008D4012001B0BDE8F08300BF59F8041C2E
:100CD0008901F6D5D9F8001021F003010843C9F8BD
:100CE0000000FFF7BDFD064641F28837D9F8000045
:100CF000616800F00C00B0EB810F97D0FFF7B0FDFA
:100D0000801BB842F2D9032001B0BDE8F08300BFD8
:100D100059F8041C8907D4D5DCE700BFD9F80020B6
:100D200043F6F523C2F34042C0F600039A5C484301
:100D3000B0FBF2F0D9F8001043F6DD22C1F3031145
:100D4000C0F60002515C40F2200220FA01F140F2AC
:100D50001C00C2F200000068C2F200021160FFF73E
:100D6000A7FD002001B0BDE8F083000040F22000A4
:100D700041F20401C2F20000C4F2020100680968F5
:100D800043F6ED22C1F3C221C0F60002515CC84017
:100D9000704700002DE9F04182B0002868D0044679
:100DA000007841F20006C007C4F2020625D0706840
:100DB00000F00C0004281BD0706800F00C0008281C
:100DC00002D17068C00313D46068002800F0688105
:100DD000B0F5A02F00F07C81B0F5803F00F07C8161
:100DE000306820F480303060306820F4802076E174
:100DF0003068800301D56068D0B32078800718D5AB
:100E0000706810F00C0F07D0706800F00C00082814
:100E10006ED17068C0036BD43068800702D520693A
:100E2000012825D13068616920F0F80040EAC1004E
:100E30003060207800071FD42078400732D4E5695D
:100E400095B1706800F00C00082840F08F80012DEB
:100E50000ED07068216A00F480328A4208D1616A3B
:100E600000F47010884203D1002002B0BDE8F08188
:100E7000012002B0BDE8F081A069002862D0002006
:100E8000C4F242200121C0F88014FFF7E9FC0546B6
:100E9000706A800700F18C80FFF7E2FC401B02289B
:100EA000F6D92AE1F06910F0805808D1F06940F0D5
:100EB0008050F061F06900F080500090009847F297
:100EC0000007C4F200073868C00529D4386840F428
:100ED00080703860FFF7C4FC054600BF3868C00565
:100EE0001ED4FFF7BDFC401B6428F7D905E100BF05
:100EF0002069002840F20000C4F2422000F0828005
:100F000001210160FFF7ACFC054600BF3068800797
:100F10003FF588AFFFF7A4FC401B0228F6D9ECE0B0
:100F2000E068002800F08080052800F09780012804
:100F300000F09880306A20F001003062306A20F0C2
:100F4000040092E00020C4F242200021C0F8801486
:100F5000FFF786FC054600BF706A80077FF56CAF1F
:100F6000FFF77EFC401B0228F6D9C6E00027C4F23A
:100F7000422700203866FFF773FC022D05460BD18F
:100F80003068800140F1BE80FFF76AFC401B0228F8
:100F90004FF00300F4D968E7306880017FF564AF53
:100FA000FFF75EFC401B02284FF00300F4D95CE71A
:100FB00040F22000C2F20000006844F6D351C1F2B2
:100FC0006201A0FB0101480A019000BF00BF019827
:100FD000411E002801913FF42FAF00BF0198411E30
:100FE000002801913FF428AF00BF0198411E00285E
:100FF00001913FF421AF00BF0198411E00280191EB
:10100000E4D119E700210160FFF72AFC054600BF83
:10101000306880077FF50DAFFFF722FC401B0228E8
:101020004FF00300F4D920E7306A20F0010030626D
:10103000306A20F004003062FFF712FC054641F2EE
:10104000883700BF306A800720D5FFF709FC401BB6
:10105000B8424FF00300F5D907E700BF306A40F00F
:1010600004003062306A40F001003062FFF7F8FBA4
:10107000054641F2883700BF306A800706D4FFF783
:10108000EFFB401BB842F7D937E000BFB8F1000FC3
:101090007FF4D5AEF06920F08050F061CFE600BF5C
:1010A000306820F480303060306820F48020306078
:1010B000FFF7D6FB054600BF306880037FF59DAE85
:1010C000FFF7CEFB401B64284FF00300F4D9CCE6B9
:1010D000306840F480203060306840F48030306008
:1010E000FFF7BEFB054600BF306880033FF585AEC5
:1010F000FFF7B6FB401B6428F6D9032002B0BDE819
:10110000F08100BF206AB0F5803F05D17168A26808
:1011100021F40031114371607168626A21F4741125
:1011200011430843706001203866FFF799FB0446BD
:10113000306880013FF598AEFFF792FB001B022854
:101140004FF00300F4D990E670B582B00646002057
:101150008DF80600ADF80400002E4FF001004DD0D0
:101160000C4600294AD0154601A93046002200F05D
:101170004BF818B1012002B070BD00BF337B717B0A
:10118000B07BF27B2370E2706170A070C5B3A2F1F6
:101190000A03DEB24FF0CD0C06FB0CF6F50A05EBA8
:1011A0008505A3EB4503012505EBD626092A88BF53
:1011B00043EA0612E270A1F10A02D3B203FB0CF378
:1011C000DE0A06EB8606A2EB460205EBD3230929CD
:1011D00088BF42EA03116170A0F10A01CAB202FBA2
:1011E0000CF2D30A03EB8303A1EB430105EBD222FC
:1011F000092888BF41EA0210A070002002B070BD2B
:10120000002002B070BD00002DE9F047064600281E
:101210004FF0010000F0A5800C46002900F0A180ED
:1012200030684168490700F1D98091468269C169F7
:10123000836948F6890583EA02073F041CBFC16938
:101240001A4689B241EA02414BF2C532C9F2A212F2
:10125000A1FB0223DA0A4FF4616302FB13139FB26E
:101260006F437D0D65702D01A5EB5757A3EB8703E9
:1012700045F28017C0F20107B942A37036D344F299
:101280000753CCF22E23A1FB03374AF6AB23CAF651
:10129000AA23A2FB03352B0903EB4303A2EBC302F2
:1012A0002270026A406A4FEA174880B240EA024060
:1012B000451A98BF4FF0FF35421C4AF68062CFF6C0
:1012C000FE7208FB021A08BF0546FFF7C9FA074677
:1012D00030684168890647D4FFF7C2FAC01BB0F5F1
:1012E0007A7FF5D90120BDE8F08700BF2270B9F1FF
:1012F000000F00F09F802178CD26A1F10A03DFB214
:101300007743FD0A05EB85056278A3EB45030125CC
:10131000A07805EBD727092988BF43EA0711217078
:10132000A2F10A01CBB27343DF0A07EB8707A1EBF7
:10133000470105EBD323092A88BF41EA0312A0F134
:101340000A016270CAB27243D30A03EB8303A1EBB2
:10135000430105EBD222092888BF41EA0210A070A0
:101360000020BDE8F08700BF416841F010014160F6
:101370004FEA1A4181611FFA8AF1C161416821F087
:1013800010014160FFF76CFA074600BF3068406803
:10139000800609D4FFF764FAC01BB0F57A7FF5D94F
:1013A0000120BDE8F08700BF681C11D05544FFF74D
:1013B00057FA074630684168890613D4FFF750FA98
:1013C000C01BB0F57A7F4FF00100F3D9C9E700BF29
:1013D00030464FF0FF3100F0A3FC18B30120BDE808
:1013E000F08700BF416841F010014160290C0162A3
:1013F000A9B24162416821F010014160FFF730FA63
:10140000074600BF3068406880060BD4FFF728FA13
:10141000C01BB0F57A7F4FF0010088BFBDE8F087B0
:10142000F0E700BF3046414600F024FBB9F1000F61
:101430007FF461AF0020BDE8F087000070B50028A0
:1014400066D00446407C20B900202074204600F07D
:101450006FF8022060742068416821F00801416043
:10146000FFF7FEF9064600BF20684568FFF7F8F968
:10147000290705460ED4A81BB0F57A7FF4D90125BB
:1014800004206074284670BDFFF7EAF9401BB0F5F0
:101490007A7FF4D8216848688006F5D5486846F612
:1014A0002C4240F0100048604868C4F2000220F06E
:1014B00007004860A06818B1536823F00103536027
:1014C000136823F46073184310606068421C06D1EF
:1014D00001200125FFF76CFA30B321680138C0F311
:1014E000034280B28A60C860486820F010004860FB
:1014F000FFF7B6F9054600BF20684068800609D4AA
:10150000FFF7AEF9401BB0F57A7FF5D9B7E700BF1A
:10151000012070BD40F201100025A4F80D0001204B
:10152000E5736074284670BD04206074284670BD61
:1015300080B582B0006842F60001C4F20001884222
:1015400002D002B080BD00BFFFF72CFA41F21C00B0
:10155000C4F20200016841F00061016000680121ED
:1015600000F000600190019840F23C40C4F242203B
:10157000016002B080BD0000F0B581B004460028D3
:101580004FF0010018BF002902D101B0F0BD00BF2B
:10159000207C01284FF00200F7D0012323746074EF
:1015A000CB78BAB1180900EB800003F00F0202EB10
:1015B000400348788A78070907EB870700F00F0097
:1015C00000EB4707100900EB800002F00F0202EB6E
:1015D000400001E04F788878022FDAB2E373677336
:1015E000A0730FD817237B4348F63967C3F6E30788
:1015F000A3FB0737C7F3470C02F2CF7340F2D47E48
:101600000CE000BF47F2D916FFB2C0F214067743D0
:1016100002F5FA634FEAD74C40F2D27EC0B21044D2
:101620009D0841F27B4770446F431D0940F63E26FA
:1016300000EB93007543A0EB574000EB154060446E
:1016400082B242F293435A43A0EB12439BB25B082F
:1016500003EB12429208A2EBC202104422682073EC
:1016600008709169D0699369002683EA01073F04F5
:101670001CBFD069194680B240EA014045F690711E
:10168000C0F2010188421BD344F20751CCF22E2153
:10169000A0FB0112110C40F2A3225143A0EBC11791
:1016A000FFF7DEF8054600BF2068416889060DD4C3
:1016B000FFF7D6F8401BB0F57A7FF5D920E000BFE0
:1016C000012100206174267401B0F0BD416841F031
:1016D00010014160390C8161B9B2C161416821F0EA
:1016E00010014160FFF7BCF8054600BF2068416863
:1016F00089060BD4FFF7B4F8401BB0F57A7FF5D913
:10170000012004216174267401B0F0BD016A406AB1
:1017100080B240EA0140B84230D200F5803000F596
:10172000A347FFF79DF8054620684168890607D45E
:10173000FFF796F8401BB0F57A7FF5D9E0E700BFD8
:10174000416841F010014160390C0162B9B2416257
:10175000416821F010014160FFF782F805462068DA
:10176000406880060AD4FFF77BF8411B0120B1F5E1
:101770007A7F4FF00401F2D9A4E700BF00200121D5
:101780006174267401B0F0BD70B5044600284FF0B6
:10179000010018BF002901D170BD00BF207C0128C5
:1017A0004FF0020008BF70BD0123237460740878F5
:1017B00002B3020902EB820200F00F0000EB4200CC
:1017C000C0B24FF4616250434A788978130903EB41
:1017D000830302F00F0202EB4302D2B2C2EB021209
:1017E00000EB82000A0902EB820201F00F0101EB1B
:1017F000420108E04FF4616250434A788978C2EBB5
:10180000021200EB8200C9B24618FFF729F805461C
:1018100020684168890607D4FFF722F8401BB0F51D
:101820007A7FF5D91AE000BF416841F010014160AC
:10183000310C8161B1B2C161416821F01001416098
:10184000FFF70EF8054600BF2068416889060BD4F3
:10185000FFF706F8401BB0F57A7FF5D90120042187
:1018600061740021217470BD416821F0050141605F
:10187000016A406A80B240EA0140B0422ED200F5CF
:10188000803000F5A346FEF7EBFF0546206841686F
:10189000890607D4FEF7E4FF401BB0F57A7FF5D93F
:1018A000DCE700BF416841F010014160310C01628A
:1018B000B1B24162416821F010014160FEF7D0FFF2
:1018C000054600BF20684068800607D4FEF7C8FFC1
:1018D000401BB0F57A7FF5D9C0E700BF0020012199
:1018E00061740021217470BD411E0020B0EB116FA6
:1018F0001CBF012070474EF21002CEF20002516070
:101900004EF62351CEF20001F0230B7007219060B8
:1019100011607047FEE700002DE9F04F85B041F2FD
:101920001800C4F20200016840F6004841F00401CA
:1019300001600168C4F2010801F0040101910199FC
:10194000016808F5806641F008010160016801AD99
:1019500001F008010191019901684FF0010941F07E
:10196000100101600068002400F01000019001984F
:101970004FF480400190032730462946CDF8089067
:1019800003940497FEF74AFE4FF4004B3046294675
:10199000CDE901B9CDE90347FEF740FE4FF4005A07
:1019A00030462946CDE901A9CDE90347FEF736FEC9
:1019B00030464FF400510022FEF74CFF4FF48050A8
:1019C000CDE9010940462946CDE90347FEF726FE49
:1019D00040462946CDE901A9CDE90347FEF71EFEA1
:1019E0004FF48040CDE9010940462946CDE903473F
:1019F000FEF714FE40462946CDE901B9CDE903477B
:101A0000FEF70CFE332000F0F1FC322000F0EEFC7B
:101A1000282000F0EBFC012000F0E8FC0C2000F096
:101A2000E5FC062000F0E2FC05B0BDE8F08F000008
:101A3000002918BF403040F08000C0B200F0D6BC92
:101A400070B504460078002808BF70BD0026002548
:101A5000A05D00F02BFD01352046EEB2FEF7CCFC78
:101A6000B042F5D870BD0000FEE70000FEE70000C0
:101A7000704700002DE9F043427B837B90F80FC054
:101A8000002900F0D380012901F0010E18D1BEF128
:101A9000000F00F0CB800C2A00F2C8800121914099
:101AA00041F2AA57394200F0B7801F2BC0F0B9802D
:101AB0000C2A40F0B9800CF1010C0122B5E000BF06
:101AC00045F6294945F628474DF20B7821F00101EA
:101AD000012441F2AA55CCF28F29C0F28F27C0F21F
:101AE000A30802E001330239D1D00C2A16D804FA37
:101AF00002F62E4208D01E2B0BD90C2A0CD10CF169
:101B0000010C012209E000BF16F4256F1ED01D2B29
:101B100002D8013302E000BF013201230C2AE2D8CF
:101B200004FA02F62E4209D01F2BDBD30C2A0AD16D
:101B30000CF1010C01220123D5E700BF16F4256F3B
:101B40000CD01E2BCED301320123CCE7022AE5D1E3
:101B50001B2B0BD801330222E0E700BF022AC2D1BF
:101B60001C2B0DD201330222BDE700BF1D2B0DD06F
:101B70001C2B0FD15FEA8C7216D000222FE000BF21
:101B80000AD01D2B0ED101230322ACE7012303222F
:101B9000C4E700BF0222C1E75FEA8C720ED00022C8
:101BA0002FE000BF02229EE71FFA8CF202FB09F22F
:101BB0004FEAB203BB420BD9012210E01FFA8CF2AC
:101BC00002FB09F24FEAB203BB4213D9012218E02B
:101BD0004FEA321242454FF0000238BF0122002A7C
:101BE0004FF002024FF01D0308BF032208BF01237C
:101BF00094E700BF4FEA321242454FF0000238BF6F
:101C00000122002A4FF002024FF01D0308BF0322F9
:101C100008BF012367E700BF11F4256F48D01E2BD2
:101C200002D2013302E000BF01320123D1B2022906
:101C300080F80FC0427383730ED81722514348F6C1
:101C40003962C3F6E302A1FB0212C2F347010CF2B0
:101C5000CF7240F2D47709E047F2D917C0F21407E7
:101C600079430CF5FA62C90C40F2D277DBB248F244
:101C70001F566344C5F2EB163B44A2FB066503EB1B
:101C80009202A2EB551202EBD512114444F6251232
:101C9000C2F29242A1FB0223CA1A03EB520293083A
:101CA000DB00A3EB9202891A0173BDE8F08300BF49
:101CB000022ABBD11C2B03D201330222B6E700BF9C
:101CC00004D01D2B08D101230322AFE75FEA8C71FA
:101CD00004D001211CE000BF0222A7E745F62942FB
:101CE0001FFA8CF1CCF28F224A4345F628434FEA83
:101CF000B201C0F28F2399424FF0000108D84DF293
:101D00000A734FEA3212C0F2A3039A4288BF01213C
:101D100002221D23002918BF032218BF012385E7D3
:101D200070B50D460446FEF79BFD064620684168E7
:101D3000890607D4FEF794FD801BB0F57A7FF5D9AC
:101D4000012070BD416841F010014160290C016221
:101D5000A9B24162416821F010014160FEF780FDA7
:101D6000054600BF20684068800607D4FEF778FD6E
:101D7000401BB0F57A7FF5D9012070BD002070BD01
:101D800070470000FEF772BD70470000FEE70000DC
:101D900070B540F2250240F60044C2F20002C4F2DF
:101DA0000104165C555C204602210022FEF752FD1C
:101DB000204604210022FEF74DFDC6F38012204686
:101DC0000121FEF747FD204604210122FEF742FDD6
:101DD000204604210022FEF73DFDC6F340122046B6
:101DE0000121FEF737FD204604210122FEF732FDD6
:101DF000204604210022FEF72DFDC6F300122046E6
:101E00000121FEF727FD204604210122FEF722FDD5
:101E1000204604210022FEF71DFDC6F3C002204625
:101E20000121FEF717FD204604210122FEF712FDD5
:101E3000204604210022FEF70DFDC6F38002204655
:101E40000121FEF707FD204604210122FEF702FDD5
:101E5000204604210022FEF7FDFCC6F34002204686
:101E60000121FEF7F7FC204604210122FEF7F2FCD7
:101E7000204604210022FEF7EDFC06F00102204678
:101E80000121FEF7E7FC204604210122FEF7E2FCD7
:101E9000204604210022FEF7DDFC2046012100221D
:101EA000FEF7D8FC204604210122FEF7D3FC204691
:101EB00004210022FEF7CEFCC5F38012204601214A
:101EC000FEF7C8FC204604210122FEF7C3FC204691
:101ED00004210022FEF7BEFCC5F34012204601217A
:101EE000FEF7B8FC204604210122FEF7B3FC204691
:101EF00004210022FEF7AEFCC5F3001220460121AA
:101F0000FEF7A8FC204604210122FEF7A3FC204690
:101F100004210022FEF79EFCC5F3C00220460121E9
:101F2000FEF798FC204604210122FEF793FC204690
:101F300004210022FEF78EFCC5F380022046012119
:101F4000FEF788FC204604210122FEF783FC204690
:101F500004210022FEF77EFCC5F340022046012149
:101F6000FEF778FC204604210122FEF773FC204690
:101F700004210022FEF76EFC05F00102204601213B
:101F8000FEF768FC204604210122FEF763FC204690
:101F900004210022FEF75EFC204601210022FEF70C
:101FA00059FC204604210122FEF754FC2046022160
:101FB0000122BDE87040FEF74DBC00002DE9F04164
:101FC00040F22504C2F20004255C675CA65C14F8AC
:101FD000038040F60044C4F2010420461021002290
:101FE000FEF738FC204620210022FEF733FCC5F323
:101FF000801220460821FEF72DFC204620210122D8
:10200000FEF728FC204620210022FEF723FCC5F322
:10201000401220460821FEF71DFC20462021012207
:10202000FEF718FC204620210022FEF713FCC5F322
:10203000001220460821FEF70DFC20462021012237
:10204000FEF708FC204620210022FEF703FCC5F322
:10205000C00220460821FEF7FDFB20462021012278
:10206000FEF7F8FB204620210022FEF7F3FBC5F324
:10207000800220460821FEF7EDFB204620210122A8
:10208000FEF7E8FB204620210022FEF7E3FBC5F324
:10209000400220460821FEF7DDFB204620210122D8
:1020A000FEF7D8FB204620210022FEF7D3FB05F0E7
:1020B000010220460821FEF7CDFB20462021012207
:1020C000FEF7C8FB204620210022FEF7C3FB204676
:1020D00008210022FEF7BEFB204620210122FEF748
:1020E000B9FB204620210022FEF7B4FBC7F3801283
:1020F00020460821FEF7AEFB204620210122FEF7F4
:10210000A9FB204620210022FEF7A4FBC7F34012C2
:1021100020460821FEF79EFB204620210122FEF7E3
:1021200099FB204620210022FEF794FBC7F3001202
:1021300020460821FEF78EFB204620210122FEF7D3
:1021400089FB204620210022FEF784FBC7F3C00252
:1021500020460821FEF77EFB204620210122FEF7C3
:1021600079FB204620210022FEF774FBC7F3800292
:1021700020460821FEF76EFB204620210122FEF7B3
:1021800069FB204620210022FEF764FBC7F34002D2
:1021900020460821FEF75EFB204620210122FEF7A3
:1021A00059FB204620210022FEF754FB07F00102D4
:1021B00020460821FEF74EFB204620210122FEF793
:1021C00049FB204620210022FEF744FB204608213F
:1021D0000022FEF73FFB204620210122FEF73AFBBA
:1021E000204620210022FEF735FBC6F38012204650
:1021F0000821FEF72FFB204620210122FEF72AFBB3
:10220000204620210022FEF725FBC6F3401220467F
:102210000821FEF71FFB204620210122FEF71AFBB2
:10222000204620210022FEF715FBC6F300122046AF
:102230000821FEF70FFB204620210122FEF70AFBB2
:10224000204620210022FEF705FBC6F3C0022046EF
:102250000821FEF7FFFA204620210122FEF7FAFAB4
:10226000204620210022FEF7F5FAC6F38002204620
:102270000821FEF7EFFA204620210122FEF7EAFAB4
:10228000204620210022FEF7E5FAC6F34002204650
:102290000821FEF7DFFA204620210122FEF7DAFAB4
:1022A000204620210022FEF7D5FA06F00102204642
:1022B0000821FEF7CFFA204620210122FEF7CAFAB4
:1022C000204620210022FEF7C5FA204608210022E0
:1022D000FEF7C0FA204620210122FEF7BBFA204675
:1022E00020210022FEF7B6FAC8F38012204608210A
:1022F000FEF7B0FA204620210122FEF7ABFA204675
:1023000020210022FEF7A6FAC8F340122046082139
:10231000FEF7A0FA204620210122FEF79BFA204674
:1023200020210022FEF796FAC8F300122046082169
:10233000FEF790FA204620210122FEF78BFA204674
:1023400020210022FEF786FAC8F3C00220460821A9
:10235000FEF780FA204620210122FEF77BFA204674
:1023600020210022FEF776FAC8F3800220460821D9
:10237000FEF770FA204620210122FEF76BFA204674
:1023800020210022FEF766FAC8F340022046082109
:10239000FEF760FA204620210122FEF75BFA204674
:1023A00020210022FEF756FA08F0010220460821FB
:1023B000FEF750FA204620210122FEF74BFA204674
:1023C00020210022FEF746FA204608210022FEF7CF
:1023D00041FA204620210122FEF73CFA2046102136
:1023E0000122BDE8F041FEF735BA000070B541F2B8
:1023F0000004C4F20104054620464FF48041002247
:10240000FEF728FA40F20006C2F20006B0683188F2
:10241000C5F30012FEF71EFAF0687188C5F340128A
:10242000FEF718FA3069B188C5F38012FEF712FA88
:102430007069F188EA09FEF70DFA20464FF4004171
:102440000122FEF707FA0120FEF7D4F820464FF4E8
:1024500000410022FEF7FEF9B068318805F0010264
:10246000FEF7F8F9F0687188C5F34002FEF7F2F95B
:102470003069B188C5F38002FEF7ECF97069F18824
:10248000C5F3C002FEF7E6F920464FF400410122F1
:10249000FEF7E0F90120FEF7ADF820464FF40041C9
:1024A0000022BDE87040FEF7D5B9000070B541F2DA
:1024B0000004C4F20104054620464FF48041012285
:1024C000FEF7C8F940F20006C2F20006B068318893
:1024D000C5F30012FEF7BEF9F0687188C5F340122B
:1024E000FEF7B8F93069B188C5F38012FEF7B2F98A
:1024F0007069F188EA09FEF7ADF920464FF4004112
:102500000122FEF7A7F90120FEF774F820464FF4E8
:1025100000410022FEF79EF9B068318805F0010203
:10252000FEF798F9F0687188C5F34002FEF792F95A
:102530003069B188C5F38002FEF78CF97069F188C3
:10254000C5F3C002FEF786F920464FF40041012290
:10255000FEF780F90120FEF74DF820464FF40041C8
:102560000022BDE87040FEF775B90000A8B0FEF784
:102570008BF904AC201D2421FDF75DFF0A20049097
:102580000120102100250890CDE909102046CDE951
:1025900020550B95FEF7FEFB20B1EFF3108072B6CD
:1025A000FEE700BF0F20CDE9220522A80021CDE9DA
:1025B00024552695FEF7FAFA20B1EFF3108072B693
:1025C000FEE700BF4FF400704FF0010B1F901EA8F4
:1025D000CDF878B0FEF764FA20B1EFF3108072B650
:1025E000FEE700BF4FF0000841F21800CDF81C8054
:1025F000C4F20200016840F6000441F010010160DD
:102600000168C4F2010401F01001229122990168CD
:10261000002241F02001016001684FF0380901F00B
:10262000200122912299016841F0040101600168B2
:1026300001F0040122912299016841F00801016032
:102640000068382100F00800229022982046FEF70A
:1026500001F904F5806528463F2100224FF03F0A2A
:10266000FEF7F8F8472004AECDE9040820463146CD
:10267000CDF81880FDF7D2FF022720463146CDE97C
:10268000049BCDF818800797FDF7C8FF2846314610
:10269000CDE904ABCDE90687FDF7C0FF40F60600A3
:1026A00040F2900BC1F21A70C2F2000B0490A4F534
:1026B0006046584640F8146F4FF0FF314FF4807277
:1026C000C0E90112FEF7BAFE20B1EFF3108072B636
:1026D000FEE700BF41F20A400BF11405ADF8880097
:1026E00022A9284600228DF88A80FFF74DF828B1EC
:1026F000EFF3108072B600BFFEE700BF04A92846C2
:1027000000224FF0000AFEF737FF28B1EFF31080E8
:1027100072B600BFFEE700BF0296FFF7FDF8204645
:1027200008210122FEF796F8204610210122FEF72B
:1027300091F8204620210122FEF78CF840F2B808DB
:10274000CD264FF06709C2F2000803951DE000BFD7
:1027500000200021FFF76CF90FF66C40FFF770F9CD
:102760009DF874209DF875309DF8767004AE304663
:102770000FF664410097FDF72BFD00200121FFF7C4
:1027800057F93046FFF75CF9CD269BF8000000F0C2
:10279000FE0104290BD128461DA90022FEF734FDB5
:1027A00028461EA90022FEF7CFFC9BF80000002857
:1027B0003ED128461DA90022FEF726FD28461EA967
:1027C0000022FEF7C1FC9DF87600C1B27143C90A30
:1027D00001EB8102A0EB420040B2FFF7D9FA9BF86F
:1027E00002109DF8740079B170B9012920D19DF8CB
:1027F00075000A23C1B27143C90A01EB8102A0EB43
:10280000420040B20A2211E09DF87520D1B2714316
:10281000C90A01EB8103A2EB430700FB06F2D30ACE
:1028200003EB8302A0EB420042B278B2FFF7C6FB93
:102830009BF80200012840F01C8120460421FDF78E
:10284000FBFF9BF80310084339D120460421FDF714
:10285000F3FF0028F9D003208BF80000BDF87400C6
:102860009DF87620ABF80D00D0B27043C10A01EBA1
:102870008100A2EB400040B28BF80F20FFF788FAEE
:102880009DF875209DF87400D1B27143C90A01EB1F
:102890008103A2EB430748B100FB06F2D30A03EB26
:1028A0008302A0EB420042B278B202E078B20A2280
:1028B0000A23FFF783FB40F20110ABF80300204628
:1028C0000421FDF7B9FF002843D19BF8030001283C
:1028D0003FD120460421FDF7AFFF0028F9D040F694
:1028E0000600C1F21A7002992290584640F8141F4F
:1028F0004FF0FF318BF800A09BF80D609BF80E7035
:102900009BF80FA0CBF818104FF48071CBF81C1077
:10291000FEF794FD002841F05580039D27A9284625
:1029200000228DF89C608DF89D708DF89EA0FEF7BA
:102930002BFF002841F04C80284622A90022FEF7F8
:102940001BFE002841F04A804FF0000ACD268BF88C
:1029500003A020460121FDF76FFF9BF803100843F9
:1029600032D120460121FDF767FF0028F9D09DF8FC
:10297000760003218BF80010C1B27143C90A01EB44
:102980008102A0EB420040B2FFF702FA9DF87520E9
:102990009DF87400D1B27143C90A01EB8103A2EB27
:1029A000430748B100FB06F2D30A03EB8302A0EB16
:1029B000420042B278B202E078B20A220A23FFF75C
:1029C000FDFA02208BF8020020460221FDF734FFB9
:1029D00000284ED120460221FDF72EFF0028F9D015
:1029E0000299584640F8141F40F60601C1F21A71C8
:1029F00022914FF0FF3110F80A6C10F8097C10F8A2
:102A000008AC41604FF480718160FEF717FD00282B
:102A100040F0FC87039D27A9284600228DF89C6082
:102A20008DF89D708DF89EA0FEF7AEFE002840F058
:102A3000F987284622A90022FEF79EFD002840F0D3
:102A4000F7874FF0000A2046102101228BF800A0E2
:102A50008BF802A0FDF7FEFE9BF80300CD260128AF
:102A600008BF8BF803A09BF80400012808BF8BF86F
:102A700004A09BF80200022804D09BF8040001285F
:102A800040F09A8020460121FDF7D6FE00283ED175
:102A900020460121FDF7D0FE0028F9D040F60600BF
:102AA000C1F21A7002992290584640F8141F4FF054
:102AB000FF3141604FF480718160FEF7BFFC002858
:102AC00040F0AA87284627A90022ADF89CA08DF8DF
:102AD0009EA0FEF759FE002840F0B087284622A9A4
:102AE0000022FEF749FD002840F0AE8700200021BB
:102AF000FFF74EF9002000210A220A23FFF75EFAB1
:102B000002208BF800008BF802A08BF804A020466E
:102B10000221FDF791FE00284ED120460221FDF74B
:102B20008BFE0028F9D00299584640F8141F40F651
:102B30000601C1F21A7122914FF0FF3110F80A6CB0
:102B400010F8097C10F808AC41604FF48071816086
:102B5000FEF774FC002840F07D87039D27A92846D6
:102B600000228DF89C608DF89D708DF89EA0FEF778
:102B70000BFE002840F07487284622A90022FEF7A9
:102B8000FBFC002840F072874FF0000A204610211D
:102B900001228BF800A08BF802A0FDF75BFE9BF8EA
:102BA0000300CD26012808BF8BF803A09BF8040082
:102BB000012808BF8BF804A09BF80000012804D06E
:102BC00008E200BF5020FDF715FD9BF8010000282A
:102BD00040F09F809BF8090041B201FB09F1C1F36D
:102BE000C03202EBA12101EB8102A0EB420040B216
:102BF000FFF7CEF89BF808000A2341B201FB09F168
:102C0000C1F3C03202EBA12101EB8102A0EB420033
:102C100040B20A22FFF7D2F95020FDF7EBFC9BF8F7
:102C200008009BF8072041B201FB09F1C1F3C03352
:102C300003EBA12101EB8103A0EB430053B203FBA3
:102C400009F3C3F3C03707EBA32303EB8307A2EB1E
:102C5000470240B252B2FFF7B1F920460221FDF718
:102C6000EBFD70B920460221FDF7E6FD0028F9D002
:102C70009BF807000130C1B2183918BF01468BF824
:102C8000071020460421FDF7D7FD68B9204604212E
:102C9000FDF7D2FD0028F9D09BF80700411E00285F
:102CA00008BF17218BF8071020460121FDF7C4FD4E
:102CB00000287FF487AF00BF20460121FDF7BCFD4F
:102CC0000028F9D001208BF801009BF808009BF840
:102CD000072041B201FB09F1C1F3C03303EBA1218D
:102CE00001EB8103A0EB430053B203FB09F3C3F3F1
:102CF000C03707EBA32303EB8307A2EB470240B2E5
:102D000052B2FFF75BF95DE75020FDF773FC9BF8CB
:102D10000100012840F09F809BF8090041B201FBAF
:102D200009F1C1F3C03202EBA12101EB8102A0EB5A
:102D3000420040B2FFF72CF89BF8070041B201FBBC
:102D400009F1C1F3C03202EBA12303EB8301A0EB35
:102D5000410042B20A200A21FFF730F95020FDF766
:102D600049FC9BF808009BF8072041B201FB09F1E0
:102D7000C1F3C03303EBA12101EB8103A0EB4300BE
:102D800053B203FB09F3C3F3C03707EBA32303EBF1
:102D90008307A2EB470240B252B2FFF70FF9204679
:102DA0000221FDF749FD70B920460221FDF744FDDF
:102DB0000028F9D09BF808000130C1B23C3918BF97
:102DC00001468BF8081020460421FDF735FD68B94F
:102DD00020460421FDF730FD0028F9D09BF80800BB
:102DE000411E002808BF3B218BF808102046012116
:102DF000FDF722FD00287FF487AF00BF20460121A8
:102E0000FDF71AFD0028F9D002208BF801009BF88D
:102E100008009BF8072041B201FB09F1C1F3C03360
:102E200003EBA12101EB8103A0EB430053B203FBB1
:102E300009F3C3F3C03707EBA32303EB8307A2EB2C
:102E4000470240B252B2FFF7B9F85DE75020FDF7F4
:102E5000D1FB9BF80100022840F07C800A200A2167
:102E6000FEF796FF9BF808009BF8072041B201FB94
:102E700009F1C1F3C03303EBA12101EB8103A0EB06
:102E8000430053B203FB09F3C3F3C03707EBA3239B
:102E900003EB8307A2EB470240B252B2FFF78EF872
:102EA0005020FDF7A7FB9BF8090041B201FB09F197
:102EB000C1F3C03202EBA12101EB8102A0EB420081
:102EC00040B2FEF765FF20460221FDF7B5FC70B960
:102ED00020460221FDF7B0FC0028F9D09BF809003C
:102EE0000130C1B23C3918BF01468BF809102046A9
:102EF0000421FDF7A1FC68B920460421FDF79CFCE4
:102F00000028F9D09BF80900411E002808BF3B218A
:102F10008BF8091020460121FDF78EFC002895D181
:102F200020460121FDF788FC0028F9D09BF8090014
:102F300003218BF8011041B201FB09F1C1F3C0324A
:102F400002EBA12101EB8102A0EB420040B2FEF7AF
:102F50001FFF7BE703283BD12046082101228BF885
:102F600001A0FDF777FC0299584640F8141F40F67F
:102F70000601C1F21A7122914FF0FF3110F80D6C69
:102F800010F80C7C10F80BAC41604FF4807181603C
:102F9000FEF754FA002840F02785039D27A928460C
:102FA00000228DF89C608DF89D708DF89EA0FEF734
:102FB000EBFB002840F01E85284622A90022FEF7E0
:102FC000DBFA002840F01C8500208BF80000EFE0C1
:102FD0009BF80000022840F0988000200021FEF7B6
:102FE000D7FE002000210A220A23FEF7E7FF204631
:102FF0000121FDF721FC90BB20460121FDF71CFCBF
:103000000028F9D040F60600C1F21A700299229009
:10301000584640F8141F4FF0FF3141604FF4807163
:103020008160FEF70BFA002840F02685284627A984
:103030000022ADF89CA08DF89EA0FEF7A5FB00280D
:1030400040F02085284622A90022FEF795FA0028A4
:1030500040F01E8501208BF800A08BF8020020466E
:103060000221FDF7E9FB00284FD120460221FDF7A0
:10307000E3FB0028F9D00299584640F8141F40F6A7
:103080000601C1F21A7122914FF0FF3110F80A6C5B
:1030900010F8097C10F808AC41604FF48071816031
:1030A000FEF7CCF9002840F0F984039D27A92846B3
:1030B00000228DF89C608DF89D708DF89EA0FEF723
:1030C00063FB002840F0F084284622A90022FEF786
:1030D00053FA00284FF000054FF0CD0640F0EA8487
:1030E0002046102101228BF800508BF80250FDF78A
:1030F000B1FB9BF80300012808BF8BF803509BF835
:103100000400012808BF8BF804509BF80000042835
:103110004CD140F22400C2F2000090F900000928CE
:1031200002DC0A2108E000BFC1B27143C90A01EB09
:103130008102A0EB420040B2FEF72AFE0A200A21DB
:103140000A220A23FEF73AFF20460221FDF774FB0C
:1031500080B920460221FDF76FFB0028F9D040F22C
:103160002402C2F2000210780130C1B2322908BF35
:103170003120107020460421FDF75EFB78B920460F
:103180000421FDF759FB0028F9D040F22402C2F2D5
:10319000000210780138010608BF01201070204697
:1031A0004021FDF749FB48B39BF8000005282ED0CD
:1031B0009BF805004FF0000A012840F0A68340F27A
:1031C0002400C2F200000078012840F009839DF835
:1031D00074109DF875204FF461679DF8763079433F
:1031E000C2EB021201EB8201D8F80020194491428F
:1031F00084BF01218BF81010F5E200BF204640216A
:10320000FDF71AFB0028F9D005208BF8000040F2EA
:103210002400C2F2000090F90000002501284FF0C0
:10322000010AC0F2318200260BE000BF40F2240008
:10323000C2F2000090F9000001368642C0B280F26E
:10324000238240B2092803DC701C40B20A210DE041
:10325000701C01B246F2676251438A1402EBD171CD
:1032600001EB8102A0EB420049B240B2FEF790FDB3
:103270000A200A210A220A23FEF7A0FE40F2523059
:1032800001E000BF5020FDF7B5F99BF801000028D0
:1032900040F0AF809BF80C0041B201FB09F1C1F393
:1032A000C03202EBA12101EB8102A0EB420040B24F
:1032B000FEF76EFD9BF80B000A2341B201FB09F1FA
:1032C000C1F3C03202EBA12101EB8102A0EB42006D
:1032D00040B20A22FEF772FE5020FDF78BF99BF8F0
:1032E0000B009BF80A2041B201FB09F1C1F3C03386
:1032F00003EBA12101EB8103A0EB430053B203FBDD
:1033000009F3C3F3C03707EBA32303EB8307A2EB57
:10331000470240B252B2FEF751FE20460221FDF7AD
:103320008BFA70B920460221FDF786FA0028F9D001
:103330009BF80A000130C1B2183918BF01468BF85A
:103340000A1020460421FDF777FA68B920460421C7
:10335000FDF772FA0028F9D09BF80A00411E0028F8
:1033600008BF17218BF80A1020464021FDF764FAA8
:1033700000287FF487AF00BF20464021FDF75CFAAC
:103380000028F9D09BF80B009BF80A2041B201FB02
:1033900009F1C1F3C03303EBA12101EB8103A0EBE1
:1033A000430053B203FB09F3C3F3C03707EBA32376
:1033B00003EB8307A2EB470240B252B28BF801A0A5
:1033C000FEF7FCFD5EE700BF5265616C2D74696D10
:1033D0006520636C6F636B0025643A253032643A74
:1033E00025303264000000005020FDF703F99BF8FF
:1033F0000100012840F09F809BF80C0041B201FBC6
:1034000009F1C1F3C03202EBA12101EB8102A0EB73
:10341000420040B2FEF7BCFC9BF80A0041B201FB3F
:1034200009F1C1F3C03202EBA12303EB8301A0EB4E
:10343000410042B20A200A21FEF7C0FD5020FDF7EC
:10344000D9F89BF80B009BF80A2041B201FB09F167
:10345000C1F3C03303EBA12101EB8103A0EB4300D7
:1034600053B203FB09F3C3F3C03707EBA32303EB0A
:103470008307A2EB470240B252B2FEF79FFD2046FF
:103480000221FDF7D9F970B920460221FDF7D4F9E0
:103490000028F9D09BF80B000130C1B23C3918BFAD
:1034A00001468BF80B1020460421FDF7C5F968B9D9
:1034B00020460421FDF7C0F90028F9D09BF80B0045
:1034C000411E002808BF3B218BF80B1020464021ED
:1034D000FDF7B2F900287FF487AF00BF20464021F6
:1034E000FDF7AAF90028F9D002208BF801009BF81B
:1034F0000B009BF80A2041B201FB09F1C1F3C03374
:1035000003EBA12101EB8103A0EB430053B203FBCA
:1035100009F3C3F3C03707EBA32303EB8307A2EB45
:10352000470240B252B2FEF749FD5DE75020FDF779
:1035300061F89BF8010002287FF478AE0A200A2186
:10354000FEF726FC9BF80B009BF80A2041B201FB1A
:1035500009F1C1F3C03303EBA12101EB8103A0EB1F
:10356000430053B203FB09F3C3F3C03707EBA323B4
:1035700003EB8307A2EB470240B252B2FEF71EFDF7
:103580005020FDF737F89BF80C0041B201FB09F120
:10359000C1F3C03202EBA12101EB8102A0EB42009A
:1035A00040B2FEF7F5FB20460221FDF745F970B960
:1035B00020460221FDF740F90028F9D09BF80C00C5
:1035C0000130C1B23C3918BF01468BF80C102046BF
:1035D0000421FDF731F968B920460421FDF72CF9E3
:1035E0000028F9D09BF80C00411E002808BF3B21A1
:1035F0008BF80C1020464021FDF71EF9002895D1CC
:1036000020464021FDF718F90028F9D09BF90A005F
:103610009BF90B104FF461625043C1EB01119BF910
:103620000C2000EB8100104448F8260050B200FB4B
:1036300009F0C0F3C03101EBA02101EB8100A2EB46
:10364000400040B28BF80150FEF7A2FB204620213B
:10365000FDF7F8F85A20FCF7CDFF20462021FDF7B2
:10366000F1F85A20FCF7C6FF20462021FDF7EAF8C2
:103670005A20FCF7BFFF20462021FDF7E3F85A202F
:10368000FCF7B8FF52E700BF2046202101228BF84B
:103690000050FDF7DFF840F22400C2F2000090F87D
:1036A00000A001214FFA8AF001288BF80510C0F222
:1036B000E980AAF1020C0122002304E00132564500
:1036C00033463FF475AD5E1C5645F7D2D84350449F
:1036D00010F0030711462FD058F8231058F8225045
:1036E000A94206D948B28BF8061048F8235048F88A
:1036F0002200012F02F101011ED058F8235058F882
:1037000021E0754506D968B28BF8065048F823E0E9
:1037100048F82100022F02F102010DD058F8237061
:1037200058F82150AF4206D978B28BF8067048F8A5
:10373000235048F82100D11CACEB03000328BDD373
:1037400008EB8100AAEB010700F1080104E000BFCB
:10375000043F01F11001B1D058F8235051F8080C82
:10376000854211D858F8235051F8040C854218D8D6
:1037700058F82350086885421FD858F823504868E5
:103780008542E5D924E000BF48F8230068B28BF8F1
:10379000065041F8080C58F8235051F8040C8542A3
:1037A000E6D948F8230068B28BF8065041F8040CBB
:1037B00058F8235008688542DFD948F8230068B2DA
:1037C0008BF80650086058F8235048688542BFD9E6
:1037D00048F8230068B28BF806504860B8E700BF8D
:1037E00041B201294EDB9DF874109DF875204FF40D
:1037F00061679DF876307943C2EB021201EB8201DA
:10380000421E032A194401D200221FE008F10803D6
:1038100000F0FC070022012553F8086C0432B14285
:1038200008BF8BF8105053F8046CB14208BF8BF8F6
:1038300010501E68B14208BF8BF810505E681033FC
:10384000B14208BF8BF810509742E5D110F0030049
:1038500018D058F82230994204BF01238BF8103059
:1038600001280FD008EB82025368994204BF01235C
:103870008BF81030022805D09068814204BF0120E7
:103880008BF810009BF81000012804D1204620215D
:103890000022FCF7DFFF20464021FCF7CDFF4FF070
:1038A000000A90BB9BF8100001282ED12046402131
:1038B000FCF7C2FF0028F9D0204620210122FCF7A6
:1038C000C9FF9DF874009DF875104FF46162504374
:1038D000C1EB011100EB810040F22401C2F20001B2
:1038E00091F900109DF8762008EB810151F8041C35
:1038F000104488428BF810A007D940F2240101201F
:10390000C2F200018BF805A0087020460121FCF7E7
:1039100093FF9BF80210084316D100BF20460121F7
:10392000FCF78AFF0028F9D001208BF80000204620
:1039300008210022FCF78EFF9DF87400BDF8751079
:103940008BF80700ABF8081020460221FCF774FF43
:10395000039DA8B920460221FCF76EFF0028F9D08C
:1039600002208BF80000204610210022FCF772FF95
:103970009DF87400BDF875108BF80A00ABF80B10B9
:1039800020464021FCF758FF9BF8051008437EF4C1
:10399000DFAE00BF20464021FCF74EFF0028F9D0E3
:1039A00004208BF80000204620210022FCF752FF63
:1039B0009DF87400BDF875108BF80A00ABF80B1079
:1039C000FEF7C6BEEFF3108072B600BFFEE700BF81
:1039D000EFF3108072B600BFFEE700BFEFF3108078
:1039E00072B600BFFEE700BFEFF3108072B600BFF3
:1039F000FEE700BFEFF3108072B600BFFEE700BF26
:103A0000EFF3108072B600BFFEE700BFEFF3108047
:103A100072B600BFFEE700BFEFF3108072B600BFC2
:103A2000FEE700BFEFF3108072B600BFFEE700BFF5
:103A3000EFF3108072B600BFFEE700BFEFF3108017
:103A400072B600BFFEE700BFEFF3108072B600BF92
:103A5000FEE700BFEFF3108072B600BFFEE700BFC5
:103A6000EFF3108072B600BFFEE700BFEFF31080E7
:103A700072B600BFFEE700BFEFF3108072B600BF62
:103A8000FEE700BFEFF3108072B600BFFEE700BF95
:103A9000EFF3108072B600BFFEE700BFEFF31080B7
:103AA00072B600BFFEE700BFEFF3108072B600BF32
:103AB000FEE700BFEFF3108072B600BFFEE73038BC
:103AC0000A2801D201207047002070470400000836
:103AD00000000000000000020001000010000000D3
:103AE00000000000000102030406070809000000AE
:103AF0000001020304010202030405060708090A83
:103B00000B0C0D0E0F101000283B000800000020C9
:103B10003000000028010008583B00083000002059
:103B200058070000440100080010002000400080F9
:103B3000000C0140000C0140000C0140000C014051
:103B400001000000100000000024F40001C0F9A4EE
:083B5000B0999282F88090FF09
:04000005080000ED02
:00000001FF
